:1000000000F00120D71D000071110000BD1100009B
:10001000BD110000BD110000BD1100000000000076
:100020000000000000000000000000005119000066
:10003000711100000000000069190000711100003A
:1000400071110000711100007111000071110000A8
:100050007111000071110000711100007111000098
:10006000711100005D20000071110000711100008D
:100070007111000071110000711100007111000078
:100080007111000071110000711100007111000068
:100090007111000071110000711100007111000058
:1000A0007111000071110000711100007111000048
:1000B000711100007111000000000000000000003C
:1000C0007111000071110000711100007111000028
:1000D0007111000071110000711100007111000018
:1000E000711100000000000000000000000000008E
:1000F00000000000711100000000000071110000FC
:1001000000000000000000000000000000000000EF
:1001100000000000000000000000000000000000DF
:1001200000000000000000000000000000000000CF
:1001300000000000000000000000000000000000BF
:100140002DE9F04383B000F0F5F9DFF84490642026
:1001500001F0D8FF00F029F9074600F05FF980466A
:1001600000F0D0F8044600F0DDF8054600F0EAF8AB
:100170000646404602F0F4FE0190384602F0F0FEDA
:10018000334600902A462146484600F00BFEDEE743
:10019000103100000000000000000000000000001E
:1001A0002DE9F041074688460021404602F0AEFEA8
:1001B000C0B9404602F0D4FE0646002E18DD4FF0CE
:1001C0007E5500243946284602F002FD05460134DA
:1001D000A642F7D10021404602F0B6FE58B12846AB
:1001E000BDE8F08108F1004002F0BAFE0646E4E7FF
:1001F0004FF07E55EEE729464FF07E5002F09CFD11
:100200000546ECE72DE9F04F83B00446002102F0EB
:100210007DFE00285AD1A1464FF07E51484602F09B
:1002200075FE002855D1DFF8C8B00021204602F045
:100230006DFE002850D14FF07E530193012500261A
:100240000024DFF8ACA0204602F06CFC01465046CA
:10025000FFF7A6FF8046284602F064FC0746594691
:1002600002F0B6FC01464846FFF79AFF01464046B9
:1002700002F0AEFC394602F05FFD0146304602F066
:100280009DFB0646013402350A2CDCD14FF07E512D
:10029000484602F03BFE10BB304602F0C5F802466D
:1002A0000B4611A1D1E9000101F05EFF04460D46A5
:1002B000019802F0B9F802460B462046294602F0A2
:1002C0000FF902F025FB03B0BDE8F08F04F10049FF
:1002D000A2E74FF07E5BA8E7054B0193AEE73146FE
:1002E000019802F075FCEEE7182D4454FB21F93F0C
:1002F000000080BF08B54F2320221921002000F004
:10030000F7FB08BD00B585B0012300930DF10F0385
:10031000A9221921002000F09BFB9DF90F0005B0D8
:100320005DF804FB00B585B0012300930DF10F03C8
:10033000AB221921002000F08BFB9DF90F0005B0C6
:100340005DF804FB00B585B0012300930DF10F03A8
:10035000AD221921002000F07BFB9DF90F0005B0B4
:100360005DF804FB08B5882360221E21002000F000
:10037000BFFB022361221E21002000F0B9FB08BD53
:1003800008B568221E21002000F084FB08BD08B5D6
:100390006A221E21002000F07DFB08BD08B56C22FA
:1003A0001E21002000F076FB08BD38B5FFF7CAFF1C
:1003B0000446FFF7A7FF0546204602F0B3FB0446BC
:1003C000284602F0AFFB0146204602F0B5FCFFF7DD
:1003D00019FF0F4902F0FCFB02F026F80AA3D3E94B
:1003E000002302F0A7F902F093FA0446002102F07C
:1003F0008DFD20B92146074802F0DEFA38BD2146BE
:10040000054802F0D9FAF9E7182D4454FB210940B8
:10041000000034430000B4420000B4C238B5FFF716
:1004200091FF0446FFF77EFF0546204602F07AFB67
:100430000446284602F076FB0146204602F07CFC8A
:10044000FFF7E0FE104902F0C3FB01F0EDFF0CA343
:10045000D3E9002302F06EF902F05AFA04460021B3
:1004600002F054FD20B92146084802F0A5FA38BD33
:100470002146074802F0A0FAF9E700BFAFF3008079
:10048000182D4454FB210940000034430000B442BD
:100490000000B4C2000000000000000000000000E6
:1004A00008B501F019FC01F0EFFD002000F088FA1A
:1004B000012000F085FA00F01BF91A4800F060F8FE
:1004C00019490B68D3F8382222F00202C3F8382207
:1004D000D3F85C2222F00202C3F85C224968D1F80A
:1004E000102222F00202C1F81022D3F8082222F0D2
:1004F0000202C3F80822D3F80C2222F00202C3F849
:100500000C22D3F8102222F00202C3F8102201229A
:100510009A614FF4806300220449054800F0F4FE1C
:1005200008BD00BF800400202C3500004101000000
:100530003031000008B5642001F0E4FDFFF7DAFE79
:10054000FFF710FF08BD08B5094B1A6801211160BB
:100550005A681368002BFCD0054B9B68186801F0A3
:1005600051FF0022034B01F0BBFF02F0D1F908BD9F
:10057000000000200000D03F00000000000000004C
:1005800008B52822014901F0F7FB08BD4031000001
:100590002DE9F0412C4C2D4FA7612D4D2026AE6149
:1005A0002C4B1B68D3F8542222F4E06242F4007210
:1005B000C3F85422D3F8582222F4E06242F40072C5
:1005C000C3F85822D3F83C2222F4E06242F40072CD
:1005D000C3F83C22D3F8602222F4E06242F40072B5
:1005E000C3F86022D3F84C2222F4E06242F4007295
:1005F000C3F84C22032001F099FDDFF85C804046EF
:10060000FFF7BEFF012000F0A1FDE760EE60D8F823
:100610000430AB60D8F80030A36002240A4E0021F9
:10062000052000F02FFDF7602023EB600A4B621CD1
:1006300053F82220AA6053F82430B36002340A2C05
:1006400008BF0024EBE700BF00050050008868D118
:10065000000800502C3500002400002004281AD87F
:10066000042918D80C4B03EB8000836AC1F1040104
:10067000580900EB410103F01F0343EA41135809F5
:1006800003F01F03012101FA03F352F8201021EABD
:10069000030142F82010704740310000042819D8A7
:1006A000042917D80C4B03EB8000836AC1F10401C5
:1006B000580900EB410103F01F0343EA41135809B5
:1006C00003F01F03012101FA03F352F8201019432C
:1006D00042F82010704700BF4031000008B52822C2
:1006E0000146024801F048FB08BD00BF240000207D
:1006F00008B54FF4806300220249034800F004FE6D
:1007000008BD00BF9105000080310000000000001E
:1007100070B505460E4600EB40021C4B03EB82030E
:100720009C680021012000F0ADFC194B53F82530E6
:10073000D3F824218AB9336803B30023336004F06B
:100740001F02012393406411A40004F1E024C4F8C3
:100750008032C4F80031092070BD0022C3F8242182
:1007600004F01F02012393406411A40004F1E0246B
:10077000C4F88032C4F800310A20EDE7054B2E2280
:100780000549064800F09EFCD7E700BF9031000005
:1007900024350000B0310000B8310000C031000045
:1007A0002DE9F041151E15DD80464C1E25440A4BEF
:1007B00053F8206006F58E7714F8013FC6F81C3513
:1007C00039464046FFF7A4FF092801D1AC42F3D1D6
:1007D000BDE8F0810920FBE7243500002DE9F04F4A
:1007E00089B00446744B53F82030744804EB44023B
:1007F000920081188258C3F808254A68C3F80C256E
:100800004FF0CC72C3F824250522C3F8002540F22E
:100810008622C3F800238D68284600F081FC6B1106
:1008200005F01F05012202FA05F540334FF0E022E2
:1008300042F82350002303935F4E2AE056F8240029
:10084000C0F88835002A3DD0012383602046FFF799
:10085000A7FF8046092835D056F8245001236B6144
:1008600005F582712046FFF753FFD5F8C434039392
:100870000723C5F8C43456F824300022C3F80022F8
:10088000CDF81480039B069304AA0221019800F07E
:10089000F7FB04A94FF0FF3000F0F4FBBDF9123074
:1008A00001939DF814309DF815209DF81690069937
:1008B000079FBDF810000728C0D0082830D001F0ED
:1008C00031F8E6E7B9F1000F6CD0013F002509F1DE
:1008D000FF3B56F824A00AF58473029311E056F802
:1008E000243001221A6002992046FFF711FF80464A
:1008F0000928B1D1DAF8183507F8013F0135A945C3
:1009000050D0AB4556F82430CCBF01220222C3F8A8
:100910000022002DE3D056F8243001221A62E2E7CB
:1009200056F82450C5F888350123AB6062B9B9F197
:10093000000F17D101236B6105F582712046FFF787
:10094000E7FE4FF0090823E02046FFF729FF804625
:100950000928ECD001236B6105F582712046FFF771
:10096000D7FE0FE04A4639462046FFF719FF80467A
:1009700001236B6105F582712046FFF7C9FEB8F1CE
:10098000090F05D0D5F8C43403930723C5F8C43440
:10099000CDF81480039B069304AA0221019800F06D
:1009A0006FFB76E756F8241001F582712046FFF7B9
:1009B000AFFE4FF009085EE72435000090310000DB
:1009C000084B53F8203003B1704710B504464FF47C
:1009D000807302460449054800F096FC014B43F839
:1009E000240010BD4C000020DD070000E8310000AD
:1009F00000B585B08DF80420069A8DF80520089A78
:100A00008DF806200293079B03936A46064B53F822
:100A1000200000F035FB6946022000F033FB01980E
:100A200005B05DF804FB00BF4C00002000B587B0A6
:100A300000238DF8173002930193012300930DF1E9
:100A400017030A460821FFF7D3FF07B05DF804FB40
:100A500000B587B08DF81720089A02920193012300
:100A600000930DF117030A460721FFF7C1FF09287C
:100A700002D107B05DF804FB034BDB2203490448B5
:100A800000F020FBF5E700BFEC310000B8310000BA
:100A9000C031000000B585B0012300930DF10F03B4
:100AA000FFF7D6FF9DF80F0005B05DF804FB00B519
:100AB00087B08DF81720089A0292019301230093C2
:100AC0000DF117030A460821FFF792FF092802D10A
:100AD00007B05DF804FB034BEB220349034800F029
:100AE000F1FAF5E7EC310000B8310000C031000048
:100AF00000B585B08DF80F30012300930DF10F0381
:100B0000FFF7D5FF05B05DF804FB00BF0000000053
:100B100030B4034602F10F000024D473064D00E008
:100B20001346B3FBF1F201FB1234645D00F8014D92
:100B30008B42F5D230BC70470032000070B50646DB
:100B40000D461446117829B12846B04714F8011F04
:100B50000029F9D170BD08B503460846984708BD7D
:100B600003685A1C02601970704738B504460D4678
:100B70000369102B04D023695A1C2261E55438BD47
:100B8000102101F0DFF800232361F4E710B40378AB
:100B90002D2B18D000240278A2F13003DBB2092BF0
:100BA00098BF002312D803EB830302EB4303303BCF
:100BB00010F8012FA2F13001C9B20929F3D93CB1D3
:100BC000584210BC704701300124E4E70023F6E7E7
:100BD0001846F6E7002207E0A1F16103DBB2052B1E
:100BE0000DD801EB0212573A10F8011BA1F13003A6
:100BF000DBB2092BF0D801EB0212303AF4E7A1F195
:100C00004103DBB2052B03D801EB0212373AEBE7C5
:100C1000104670472DE9F04784B00F46117800293F
:100C200000F096800646154698464FF030094FF082
:100C3000780A53E058F8041BC9B23846B04749E077
:100C400058F8040B002809DB6A460A21FFF760FF09
:100C5000024639463046FFF771FF3BE06A460A21FB
:100C60004042FFF755FF421E2D2300F8013CF0E7FC
:100C700058F8042B39463046FFF760FF2AE06A46F1
:100C80000A2158F8040BFFF743FF02463946304665
:100C9000FFF754FF1EE058F8045B1DB9494638467B
:100CA000B04717E049463846B04751463846B04746
:100CB0006A4610212846FFF72BFF02463946304688
:100CC000FFF73CFF06E019463846B04702E03846D9
:100CD000B0472C46651C6178002939D02529F6D10A
:100CE0006B78002BF3D06C1CA3F16302152AEAD8B1
:100CF00001A151F822F000BF350C0000410C0000AA
:100D0000C70C0000C70C0000C70C0000C70C000097
:100D1000C70C0000C70C0000C70C0000C70C000087
:100D2000C70C0000C70C0000C70C0000C70C000077
:100D3000C70C0000C70C0000710C0000C70C0000BD
:100D40007F0C0000C70C0000C70C0000970C0000CF
:100D500004B0BDE8F08708B513460A4601460248CC
:100D6000FFF758FF08BD00BF570B00000EB410B5C9
:100D700083B0044605AB53F8042B0190009301A9FE
:100D80000748FFF747FF019B5A1C019200221A7087
:100D90000198001B03B0BDE8104003B0704700BFCE
:100DA000610B00000FB400B587B008AB53F8042BFB
:100DB00000210491059369460548FFF72BFF04992C
:100DC000684600F0BFFF07B05DF804EB04B0704761
:100DD0006B0B0000EFF3108172B60E4B1A680E48D1
:100DE00080FB0230D317C3EBA0330C4800FB032079
:100DF0000B4A02FB03F34BF68F4202FB0030002844
:100E0000BCBF00F1004000F1FF30024B186081F3DD
:100E10001088704710000020C989475E3852FFFFD4
:100E2000B9F2FFFF00000000000000000000000019
:100E3000F0B40546836A8BB11A6B022A4CD09C6BC6
:100E400064B1226B022A0FD02346F8E7244A42F805
:100E5000335026E0224A42F8334037E003236B61E7
:100E600002232B63696335E0A26B9A636E6B3EB11C
:100E7000276811B10FC986E80F00778002233380FD
:100E80006B6A032B11D001226A610022AA63144A03
:100E900052F83320002AD9D0114A02EBC30252681B
:100EA00095630F4A02EBC3035D60636A032B11D0A5
:100EB000012262610022A263094A52F83320002A0B
:100EC000C8D0074A02EBC30252689463044A02EB9B
:100ED000C3035C60F0BC70479A6B82621C46C5E736
:100EE0005400002004DF70474FF47A6300BF00BF56
:100EF00000BF013BFAD110490B6840229A61496852
:100F00004FF48070C8619A600C4B0022C3F8002532
:100F10000B49C3F82415C3F86C250621C3F80C153A
:100F20002821C3F814150421C3F800150121996084
:100F30001960C3F8082170472C35000000200040DC
:100F400000502700064BC3F81C051A46D2F81C3186
:100F5000002BFBD0024B0022C3F81C21704700BFBE
:100F6000002000400FB400B583B004AA52F8041B5F
:100F700001920448FFF7EFFE03B05DF804EB04B004
:100F8000704700BF450F00001C4B03EB80008369D6
:100F90005A69032A02D00122DA6270471A6BB2F151
:100FA000FF3F01D0012AF6D15A6B22B14FF6FF71F3
:100FB0005180012111805A6A032A10D00121596100
:100FC000002199630D4951F8321099B10B4901EB99
:100FD000C20149688B63094901EBC2025360074BA8
:100FE000D3F898305B6A002B03DD054B4FF080523D
:100FF0005A607047014941F83230ECE75400002054
:1010000000ED00E01C4BD3F8983098615A6A032A2F
:1010100010D00121596100219963174951F832100C
:10102000E1B1154901EBC20149688B63124901EB3B
:10103000C2025360104B1B68B3B90F4B9B688BB94E
:101040000D4B1B69022183B90B4BD3F89C20C3F8CD
:101050009820094BD3F8983098697047064941F8B1
:101060003230E3E7012100E00021034AC2F8983062
:101070009B6B42F83130ECE75400002000DF7047F2
:1010800001DF704702DF704703DF704705DF7047FD
:101090000FB470B582B006AC54F8046BEFF3108552
:1010A00072B6FFF721FF0194224631460448FFF74C
:1010B00052FE85F3108802B0BDE8704004B070475E
:1010C000450F00000FB430B583B006AC54F8045B94
:1010D00072B6FFF709FF0D48FFF744FF019422465F
:1010E00029460B48FFF737FE0A4BD3F8981019B181
:1010F00004310948FFF736FF0848FFF733FF00F0D7
:10110000FCFE03B0BDE8304004B070476032000020
:10111000450F0000540000206C3200007C320000BB
:1011200010B5041E0ADB074BD3F89820002151624A
:1011300003EB84031268C3F8A02010BD0248FFF738
:10114000C1FFF0E7540000208032000010B50446D3
:10115000022804D8044BD3F898305C6210BD0146D5
:101160000248FFF7AFFFF5E754000020A03200006F
:1011700010B50F4B5C68E4B2103C05D40D4B03EB8B
:101180008403D3F8A00020B921460B48FFF79AFF4B
:101190000020631104F01F04012202FA04F46033FA
:1011A0004FF0E02242F82340FFF7EEFE10BD00BFF3
:1011B00000ED00E054000020B432000008B5054BFB
:1011C0005B68DBB2044A52F823100448FFF77AFF49
:1011D00008BD00BF00ED00E020320000CC3200006E
:1011E0002DE9F04781460F46334BD3F8A0311F2B32
:1011F00055D8314BD3F8A08108F10102C3F8A021E2
:101200002E4A136852689B1A3B2B4CD92B4A146800
:10121000A4F13C061660284B03EB88039E615368DB
:10122000073323F007035360FD1D25F00705F31A6C
:101230009D423CDC214BD3F804A055445D600AEB91
:101240000705554505D953461D4A43F8042B9D42D1
:10125000FBD844F83C8C0F224946A4F1380001F039
:1012600017FF002304F8293C44F8245C44F820AC20
:1012700044F81C7C012244F8282C022244F8182C43
:1012800044F8143C44F8103C4FF0FF3244F80C2C66
:1012900044F8083C44F8043C3046BDE8F08709486F
:1012A000FFF710FFA5E70848FFF70CFFAEE7074878
:1012B000FFF708FFBEE700BF540000201400002025
:1012C000EFBEADDEE0320000F43200000C3300006F
:1012D00008B580210A48FFF783FF0A4CC4F89C0038
:1012E0000523436103234362FFF7DAF8D4F89C3007
:1012F000C4F89830986900F023FBFFF7BFFEFEE7C3
:1013000028330000540000202DE9F0410E4690469D
:10131000073323F00701FFF763FF04461D4BD3F8A3
:10132000983013B11C48FFF7CDFEA569A5F144071D
:1013300044220021384600F046FD4FF0807345F806
:10134000043C26F0010645F8086C144B45F80C3CAB
:1013500045F8208C6FF0020345F8443CA761636AAE
:10136000032B10D0012262610022A263094A52F8C5
:1013700033205AB1074A02EBC30252689463054A0C
:1013800002EBC3035C602068BDE8F081014A42F8CB
:101390003340F4E75400002030330000E50E000035
:1013A0002DE9F04389B00446C36B13F8025C974BF8
:1013B000D3F898309861DB691A68954B9A420AD144
:1013C000052D00F25982DFE815F00A004500D4002F
:1013D0006A01E80106028F48FFF774FEF0E78B4BC5
:1013E000D3F898305A6A032A10D00121596100219C
:1013F0009963864951F83210F1B1844901EBC20179
:1014000049688B63814901EBC20253607F4B1B68C3
:10141000C3B97E4B9B689BB97C4B1B69022193B976
:101420007A4BD3F89C20C3F89820784BD3F89830A7
:10143000986909B0BDE8F083744941F83230E1E7BA
:10144000012100E00021714AC2F898309B6B42F8FC
:101450003130EAE7616AA66AE56AA8466B4BD3F8C1
:101460009820176803EB81039C69002906DB674B12
:10147000D3F8A031994201D2636913B96648FFF7E6
:1014800021FE6369032B0DD0604BD3F89810022323
:101490004B610E634D6300238B63A26A002A4AD11D
:1014A000A1624CE0236BB3F1FF3F01D09E42EBD130
:1014B000D4F834C0BCF1000F08D01DB198E80F007B
:1014C0008CE80F00ACF80270ACF80060636A032B84
:1014D00010D0012262610022A2634C4A52F83320EC
:1014E00002B34A4A02EBC30252689463474A02EBD2
:1014F000C3035C60454BD3F898305A6A032A1ED068
:101500000121596100219963404951F8321069B1B4
:101510003E4901EBC20149688B633C4901EBC202C1
:1015200053600CE0394A42F83340DFE7374941F86D
:101530003230F2E71A46936B002BFBD19163334BA9
:101540001B6873B9314B9B684BB9304B1B69022147
:1015500043B92E4BD3F89C20C3F8982065E70121AE
:1015600000E00021294AC2F898309B6B42F83130E4
:101570005BE7626AA66A3746244BD3F89850EB6A59
:10158000EBB1B2F1FF3F0FD0012A0DD0AB6AC3B16E
:10159000196B8A4200F075819C6B94B1216B8A4271
:1015A00000F08A812346F7E70023EB62002E3FF428
:1015B0003CAF4FF6FF7373800123338035E7012A78
:1015C00016D103236B612A636E63104B1B68002BDB
:1015D0005DD10E4B9B68002B57D10C4B1B69022130
:1015E000002B55D1094BD3F89C20C3F898201CE759
:1015F000AB6A002BE5D0B2F1FF3FC9D11C46A36B0B
:10160000AB625BE1014A42F8335077E154000020BD
:10161000EFBEADDE5833000068330000636A032B71
:1016200019D0012262610022A263974A52F8332046
:101630004AB1954A02EBC30252689463924A02EBA4
:10164000C3035C6007E0904A42F83340F6E7616B01
:101650002046FFF7EDFB8C4B1B6873B98A4B9B68E8
:101660004BB9894B1B69022143B9874BD3F89C20A6
:10167000C3F89820D9E6012100E00021824AC2F88F
:1016800098309B6B42F83130CFE6012100E0002119
:101690007D4AC2F898309B6B42F83130C5E6656AE6
:1016A000A66AE76AB846784BD3F89820D2F800903B
:1016B00003EB85039C69022E1DD0002D06DB724BC7
:1016C000D3F8A0319D4201D263691BB929466F4806
:1016D000FFF7F8FC6369032B11D06B4BD3F898101C
:1016E00004234B610E634F6300238B63A26A002ABD
:1016F00035D1A16237E06648FFF7E4FCDDE7236BF4
:10170000B3F1FF3F01D09E42E7D1656B3DB11FB100
:1017100098E80F0085E80F00A5F802902E80636A14
:10172000032B10D0012262610022A263564A52F8B4
:1017300033207AB1544A02EBC30252689463524A8E
:1017400002EBC3035C6039464F4BD3F89800FFF7B8
:101750006FFB08E04C4A42F83340F0E71A46936BBF
:10176000002BFBD19163484B1B6873B9464B9B68B8
:101770004BB9454B1B69022143B9434BD3F89C201D
:10178000C3F8982051E6012100E000213E4AC2F84A
:1017900098309B6B42F8313047E63B4BD3F89820AA
:1017A000002151611B6873B9374B9B684BB9364BAD
:1017B0001B69022143B9344BD3F89C20C3F898200D
:1017C00033E6012100E000212F4AC2F898309B6BDC
:1017D00042F8313029E6FFF787FB2E48FFF7C2FBBE
:1017E000294BD3F8A031002B3FF41FAEDFF8C080A7
:1017F0000025294FDFF8BC9004AE1BE0134624E01F
:101800006269264B03EB8203221D02920196E26974
:101810000092DB692A4622482249092DD8BF014699
:101820002148FFF79FFB0135174BD3F8A0319D42AC
:10183000BFF4FBAD58F8044BE2691368BB42DDD13D
:10184000134653F8041FB942FBD0216A9A1A0B467B
:101850008A1A49463046FFF789FA304601F0A8FB5C
:101860000828CDDCC0F109022021304400F0ABFA99
:1018700000238DF81930C3E729460C48FFF722FCF6
:10188000D3E51C46BBE600BF5400002068330000CF
:10189000A8330000D8330000EFBEADDE20320000D8
:1018A00080340000E8330000F43300000C34000002
:1018B0006C000020EC330000A26B9A6366B1D4F890
:1018C00000E0D4F830C0636B13B10FCB87E80F0092
:1018D000A6F802E0A6F800C06B6A032B12D0012222
:1018E0006A610022AA630D4A52F83320002A3FF4AD
:1018F00089AE0A4A02EBC30252689563074A02EBBB
:10190000C3035D606369022B3FF488AE042B3FF490
:101910009EAE0348FFF7D6FB9DE600BF54000020B3
:101920009033000008B501460148FFF7CBFB08BD26
:101930002034000000000000000000000000000053
:1019400080F30988022080F31488BFF36F8F7047FB
:10195000EFF30980734620E9F80FFFF721FDB0E8A7
:10196000F80F80F309881847EFF30980734620E9E0
:10197000F80FFFF747FBB0E8F80F80F30988184726
:10198000084B1A68B2F5807F0BD010B419465B681B
:10199000CC1820720133DBB24B6001320A6010BCFC
:1019A00070477047F801002010B584B01E4B1868CE
:1019B000002804DB1D4BD3F80831002B19DC1A4B2F
:1019C0005B68A3B1194B1A68002A10DD1946D3F8D9
:1019D0001032C818047A1648C0F81C450133DBB22F
:1019E000C1F81032013A0A600F4B00225A6004B06D
:1019F00010BD0E4CD4F80C32234493F80C310193F3
:101A00006A460221FFF73CFBD4F80C320133DBB20B
:101A1000C4F80C32D4F80831013BC4F80831024B49
:101A20004FF0FF321A60CAE71C000020F8010020C6
:101A30000020004038B5434BD3F8083193B9414BEF
:101A4000D3F81C3133B1404B01225A603D4B002288
:101A5000C3F81C214FF0E0230422C3F88022C3F80E
:101A6000002138BD374BD3F81805C0B20A283FD043
:101A700021D802285ED0082821D0A0F12003DBB2B3
:101A80005E2B59D8314BD3F81422D3F808311344C4
:101A9000B3F5807F50D02D49D1F81832CC1884F896
:101AA0000C010133DBB2C1F818320132C1F8142243
:101AB000FFF766FF40E00D281AD07F28DDD1234BC9
:101AC000D3F81432002B37DD204A013BC2F8143220
:101AD000D2F81832013BDBB2C2F818320820FFF707
:101AE0004FFF2020FFF74CFF0820FFF749FF23E0BE
:101AF000164AD2F80801D2F81432C218B2F5807F23
:101B00001AD01249D1F818228D180A2485F80C41F0
:101B10000132D2B2C1F8182201330344C1F80831AE
:101B20000023C1F814320D20FFF72AFF2046FFF7EB
:101B300027FF01E0FFF7AAFA024B0022C3F80821B1
:101B40007DE700BF002000401C000020F8010020BD
:101B5000F8B507460E4B1B68B3F5807F0ED1002603
:101B600001250B4C31462846FFF78CFAFFF762FF40
:101B7000FFF71AFF2368B3F5807FF3D004494A6862
:101B8000881807720132D2B24A6001330B60F8BD87
:101B9000F80100202DE9F04784B04B4B0022C3F838
:101BA00000254A49C3F82415C3F86C250621C3F85B
:101BB0000C152821C3F814150425C3F80055012479
:101BC0009C601C60C3F808218422C3F8042302200F
:101BD000FFF7A6FA4FF0E023C3F800513C4B5C60DE
:101BE0009846DFF8F09003E0FFF724FFFFF7DCFEF4
:101BF00069464FF0FF30FFF745FABDF90270BDF8B6
:101C00000000431E112B5BD801A252F823F000BF45
:101C1000E91B0000C11C0000C11C0000C11C000029
:101C2000C11C0000C11C0000C11C0000C11C000040
:101C3000C11C0000C11C0000C11C0000C11C000030
:101C4000C11C0000C11C0000C11C00006F1C000072
:101C5000591C0000871C0000D8F80030002B02DA65
:101C6000C8F80070C2E74846FFF72CFAF8E79DF87D
:101C700004400A2C03D02046FFF76AFFB6E70D2088
:101C8000FFF766FFF7E7019E029B002B12DD741E33
:101C90001E44013E4FF00D0A07E05046FFF758FF83
:101CA0002846FFF755FFB44204D014F8015F0A2D0F
:101CB000F6D1F2E7002202213846FFF7E1F995E775
:101CC000FFF730FE92E700BF0020004000502700E1
:101CD0001C000020C034000008B54FF480730022BF
:101CE00003490448FFF710FB034BC3F81C0208BD6F
:101CF000951B0000EC340000F801002000B585B011
:101D000001906A461021044BD3F81C02FFF7B8F982
:101D100005B05DF804FB00BFF801002000B585B0F8
:101D200000221121064BD3F81C02FFF7A9F96946DE
:101D30000220FFF7A7F99DF8040005B05DF804FB49
:101D4000F801002000B585B0019002916A46122189
:101D5000034BD3F81C02FFF797F905B05DF804FBBD
:101D6000F80100200000000000000000000000005A
:101D700008B5FEF795FBFEE752B110B4431E8A1872
:101D800011F8014B03F8014F9142F9D110BC704793
:101D9000704710B488420AD83AB1431E0A4411F879
:101DA000014B03F8014F8A42F9D110BC70478418E7
:101DB0008B18002AF9D0224613F8014D02F8014D84
:101DC0009942F9D1F1E72AB18218034603F8011BC1
:101DD0009A42FBD170472DE9F8434FF0804300222F
:101DE000C3F8002101221A601A46D2F80031002BF4
:101DF000FBD0134AD2F8403543F00103C2F8403516
:101E0000DFF854800F4EA6EB08060F4F0F4DED1B69
:101E10000F48104C241ADFF8449022464946FFF739
:101E2000ABFF324609EB04014046FFF7A5FF2A4607
:101E300000213846FFF7C7FFFFF74AFABDE8F883ED
:101E400000E001402400002024000020A80400201D
:101E500000F0810000F081000000002058350000F3
:101E600010B403460244D41A002C0BDD13F8014BC6
:101E700011F8010B8442F6D0844234BF4FF0FF309A
:101E8000012000E0002010BC704710B4002816DBD1
:101E900020F0030404F1E024D4F80034C000FF2251
:101EA000824002F0030223EA0203C9B201FA00F001
:101EB00000F003000343C4F8003410BC704700F185
:101EC000080323F0030303F1604303F56D439A69AC
:101ED000C000FF24844004F0030422EA0402C9B2D3
:101EE00001FA00F000F0030002439A61E5E7000107
:101EF00002D000BF0138FCD170472DE9F84372B61B
:101F0000154B164A5A6103F5407320225A61124C50
:101F1000DFF854901F4604E0656065601048FFF7E5
:101F2000E6FF212641F28838C4F8049000257D6040
:101F30004046FFF7DCFF4FF40843636020237B60DB
:101F40004046FFF7D4FF074B63607D604046FFF7D4
:101F5000CEFF013EE8D1DFE700050050008868D1E0
:101F6000A0860100000008D0000020D00000000082
:101F700080B588B0364B01225A600021C3F80415A1
:101F8000C3F808150421C3F81015DA604FF47A710C
:101F9000C3F84015C3F800224FF48031C3F804138E
:101FA0001A604FF0E0234FF40072C3F80021294D6E
:101FB000DFF8A4A03CE0274C04F160084FF00509CD
:101FC00005E0A2681344A3600C34444530D0206877
:101FD0000028F9DBA3682A6E9342F5D801936A467C
:101FE0004946FFF74DF86368002BEAD14FF0FF3305
:101FF0002360E9E7BDF91260DDF81490069F2B68B5
:10200000002B23DB134B0124DA68002A06DB0134A2
:102010000C33082CF8D15046FFF754F863001A1916
:1020200005EB820145F822602A6E4A448A604F60BF
:1020300004A94FF0FF30FFF725F8BDF81000012884
:10204000B9D00428D6D0FFF76DFCF1E70024E5E70E
:1020500000900040180400204035000008B5084BEF
:10206000D3F8403103B908BD064B1A6E01321A6627
:10207000034A0021C2F84011586EFEF785FFF2E7CF
:10208000009000401804002010B50A4C4FF0FF33B8
:102090002360E360A36163622363E363A364636516
:1020A0004FF48073002204490448FFF72DF960665D
:1020B00010BD00BF18040020711F00005035000043
:1020C000014B186E704700BF1804002072B60B4B0E
:1020D00001225A64D3F840119A64D3F84425D3F806
:1020E0004805074B1B6E62B611B1824298BF01339F
:1020F0004FF47A7000FB0320704700BF009000404F
:102100001804002010B584B00190002402946A469F
:102110000421054B586EFEF7B3FF21460520FEF75C
:10212000B1FF04B010BD00BF1804002000B585B099
:10213000019002906A460421034B586EFEF7A0FFFF
:1021400005B05DF804FB00BF1804002008B50021AD
:102150000520FEF797FF08BD00000000000000000A
:1021600081F0004102E000BF83F0004330B54FEA48
:1021700041044FEA430594EA050F08BF90EA020FB5
:102180001FBF54EA000C55EA020C7FEA645C7FEA48
:10219000655C00F0E2804FEA5454D4EB5555B8BF6B
:1021A0006D420CDD2C4480EA020281EA030382EADC
:1021B000000083EA010180EA020281EA0303362D6E
:1021C00088BF30BD11F0004F4FEA01314FF4801C41
:1021D0004CEA113102D0404261EB410113F0004F53
:1021E0004FEA03334CEA133302D0524263EB43030A
:1021F00094EA050F00F0A780A4F10104D5F1200EA8
:102200000DDB02FA0EFC22FA05F2801841F1000102
:1022100003FA0EF2801843FA05F359410EE0A5F1D6
:1022200020050EF1200E012A03FA0EFC28BF4CF007
:10223000020C43FA05F3C01851EBE37101F00045BD
:1022400007D54FF0000EDCF1000C7EEB00006EEBCA
:102250000101B1F5801F1BD3B1F5001F0CD3490854
:102260005FEA30004FEA3C0C04F101044FEA4452AB
:1022700012F5800F80F09A80BCF1004F08BF5FEA32
:10228000500C50F1000041EB045141EA050130BD12
:102290005FEA4C0C404141EB010111F4801FA4F1B5
:1022A0000104E9D191F0000F04BF01460020B1FA0A
:1022B00081F308BF2033A3F10B03B3F120020CDA42
:1022C0000C3208DD02F1140CC2F10C0201FA0CF020
:1022D00021FA02F10CE002F11402D8BFC2F1200C85
:1022E00001FA02F120FA0CFCDCBF41EA0C0190403B
:1022F000E41AA2BF01EB0451294330BD6FEA040484
:102300001F3C1CDA0C340EDC04F11404C4F120026E
:1023100020FA04F001FA02F340EA030021FA04F380
:1023200045EA030130BDC4F10C04C4F1200220FAD7
:1023300002F001FA04F340EA0300294630BD21FA15
:1023400004F0294630BD94F0000F83F4801306BFDB
:1023500081F480110134013D4EE77FEA645C18BFCF
:102360007FEA655C29D094EA050F08BF90EA020F66
:1023700005D054EA000C04BF1946104630BD91EA5E
:10238000030F1EBF0021002030BD5FEA545C05D161
:102390004000494128BF41F0004130BD14F58004A0
:1023A0003CBF01F5801130BD01F0004545F0FE4114
:1023B00041F470014FF0000030BD7FEA645C1ABF49
:1023C000194610467FEA655C1CBF0B46024650EA80
:1023D000013406BF52EA033591EA030F41F40021AC
:1023E00030BD00BF90F0000F04BF0021704730B532
:1023F0004FF4806404F132044FF000054FF0000107
:1024000050E700BF90F0000F04BF0021704730B5C7
:102410004FF4806404F1320410F0004548BF40429C
:102420004FF000013EE700BF42004FEAE2014FEAF1
:1024300031014FEA02701FBF12F07F4393F07F4FCC
:1024400081F06051704732F07F4208BF704793F0CF
:102450007F4F04BF41F40021704730B54FF46074E2
:1024600001F0004521F000411CE700BF50EA0102E5
:1024700008BF704730B54FF000050AE050EA01028E
:1024800008BF704730B511F0004502D5404261EBFE
:1024900041014FF4806404F132045FEA915C3FF43F
:1024A000D8AE4FF003025FEADC0C18BF03325FEADC
:1024B000DC0C18BF033202EBDC02C2F1200300FA8D
:1024C00003FC20FA02F001FA03FE40EA0E0021FAB2
:1024D00002F11444BDE600BF00000000000000004F
:1024E00070B54FF0FF0C4CF4E06C1CEA11541DBFAA
:1024F0001CEA135594EA0C0F95EA0C0F00F0DEF875
:102500002C4481EA030621EA4C5123EA4C5350EA59
:10251000013518BF52EA033541F4801143F48013AA
:1025200038D0A0FB02CE4FF00005E1FB02E506F03B
:102530000042E0FB03E54FF00006E1FB03569CF090
:10254000000F18BF4EF0010EA4F1FF04B6F5007F96
:1025500064F5407404D25FEA4E0E6D4146EB060608
:1025600042EAC62141EA55514FEAC52040EA5E5091
:102570004FEACE2EB4F1FD0C88BFBCF5E06F1ED83B
:10258000BEF1004F08BF5FEA500E50F1000041EB72
:10259000045170BD06F0004646EA010140EA02001F
:1025A00081EA0301B4EB5C04C2BFD4EB0C0541EA41
:1025B000045170BD41F480114FF0000E013C00F356
:1025C000AB8014F1360FDEBF002001F0004170BD7A
:1025D000C4F10004203C35DA0C341BDC04F1140493
:1025E000C4F1200500FA05F320FA04F001FA05F21F
:1025F00040EA020001F0004221F0004110EBD370EC
:1026000021FA04F642EB06015EEA430E08BF20EA17
:10261000D37070BDC4F10C04C4F1200500FA04F3BA
:1026200020FA05F001FA04F240EA020001F000414C
:1026300010EBD37041F100015EEA430E08BF20EABF
:10264000D37070BDC4F1200500FA05F24EEA020E07
:1026500020FA04F301FA05F243EA020321FA04F036
:1026600001F0004121FA04F220EA020000EBD370ED
:102670005EEA430E08BF20EAD37070BD94F0000FED
:102680000FD101F00046400041EB010111F4801F21
:1026900008BF013CF7D041EA060195F0000F18BFD2
:1026A000704703F00046520043EB030313F4801F0E
:1026B00008BF013DF7D043EA0603704794EA0C0FC8
:1026C0000CEA135518BF95EA0C0F0CD050EA4106DE
:1026D00018BF52EA4306D1D181EA030101F000415B
:1026E0004FF0000070BD50EA410606BF1046194683
:1026F00052EA430619D094EA0C0F02D150EA01368F
:1027000013D195EA0C0F05D152EA03361CBF1046CF
:1027100019460AD181EA030101F0004141F0FE416E
:1027200041F470014FF0000070BD41F0FE4141F4F2
:10273000780170BD70B54FF0FF0C4CF4E06C1CEAF2
:1027400011541DBF1CEA135594EA0C0F95EA0C0FA7
:1027500000F0A7F8A4EB050481EA030E52EA033562
:102760004FEA013100F088804FEA03334FF0805583
:1027700045EA131343EA12634FEA022245EA1115B0
:1027800045EA10654FEA00260EF000419D4208BF61
:10279000964244F1FD0404F5407402D25B084FEA0E
:1027A0003202B61A65EB03055B084FEA32024FF4BA
:1027B00080104FF4002CB6EB020E75EB030E22BF17
:1027C000B61A754640EA0C005B084FEA3202B6EBD7
:1027D000020E75EB030E22BFB61A754640EA5C0086
:1027E0005B084FEA3202B6EB020E75EB030E22BF16
:1027F000B61A754640EA9C005B084FEA3202B6EB17
:10280000020E75EB030E22BFB61A754640EADC00D5
:1028100055EA060E18D04FEA051545EA16754FEA37
:1028200006164FEAC30343EA52734FEAC2025FEA55
:102830001C1CC0D111F4801F0BD141EA00014FF0E4
:1028400000004FF0004CB6E711F4801F04BF0143B5
:102850000020B4F1FD0C88BFBCF5E06F3FF6AFAED1
:10286000B5EB030C04BFB6EB020C5FEA500C50F161
:10287000000041EB045170BD0EF0004E4EEA1131E4
:1028800014EB5C04C2BFD4EB0C0541EA045170BDEB
:1028900041F480114FF0000E013C90E645EA060E2F
:1028A0008DE60CEA135594EA0C0F08BF95EA0C0F5D
:1028B0003FF43BAF94EA0C0F0AD150EA01347FF4A5
:1028C00034AF95EA0C0F7FF425AF104619462CE77C
:1028D00095EA0C0F06D152EA03353FF4FDAE1046DF
:1028E000194622E750EA410618BF52EA43067FF430
:1028F000C5AE50EA41047FF40DAF52EA43057FF4C0
:10290000EBAE12E700000000000000000000000035
:102910004FEA4102B2F1E04324BFB3F5001CDCF101
:10292000FE5C0DD901F0004C4FEAC0024CEA507039
:10293000B2F1004F40EB830008BF20F00100704768
:1029400011F0804F21D113F13872BCBF01F000406B
:10295000704741F480114FEA5252C2F11802C2F19D
:10296000200C10FA0CF320FA02F018BF40F001001E
:102970004FEAC1234FEAD32303FA0CFC40EA0C00D0
:1029800023FA02F34FEA4303CCE77FEA625307D10D
:1029900050EA01331EBF4FF0FE4040F44000704744
:1029A00001F0004040F0FE4040F40000704700BFDE
:1029B00080F0004002E000BF81F0004142001FBFF4
:1029C0005FEA410392EA030F7FEA226C7FEA236CFD
:1029D0006AD04FEA1262D2EB1363C1BFD2184140F2
:1029E00048404140B8BF5B42192B88BF704710F088
:1029F000004F40F4000020F07F4018BF404211F02B
:102A0000004F41F4000121F07F4118BF494292EA92
:102A1000030F3FD0A2F1010241FA03FC10EB0C00BE
:102A2000C3F1200301FA03F100F0004302D549424B
:102A300060EB4000B0F5000F13D3B0F1807F06D3F8
:102A400040084FEA310102F10102FE2A51D2B1F1F0
:102A5000004F40EBC25008BF20F0010040EA0300E5
:102A60007047490040EB000010F4000FA2F1010292
:102A7000EDD1B0FA80FCACF1080CB2EB0C0200FA1C
:102A80000CF0AABF00EBC25052421843BCBFD0406A
:102A90001843704792F0000F81F4000106BF80F4E4
:102AA00000000132013BB5E74FEA41037FEA226CA7
:102AB00018BF7FEA236C21D092EA030F04D092F072
:102AC000000F08BF0846704790EA010F1CBF0020A6
:102AD000704712F07F4F04D1400028BF40F0004003
:102AE000704712F100723CBF00F50000704700F023
:102AF000004343F0FE4040F4000070477FEA22624A
:102B000016BF08467FEA23630146420206BF5FEA1A
:102B1000412390EA010F40F4800070474FF000031A
:102B200004E000BF10F0004348BF40425FEA000CE1
:102B300008BF704743F0964301464FF000001CE089
:102B400050EA010208BF70474FF000030AE000BFDF
:102B500050EA010208BF704711F0004302D540421D
:102B600061EB41015FEA010C02BF8446014600208F
:102B700043F0B64308BFA3F18053A3F50003BCFAAA
:102B80008CF2083AA3EBC25310DB01FA02FC634457
:102B900000FA02FCC2F12002BCF1004F20FA02F25E
:102BA00043EB020008BF20F00100704702F1200251
:102BB00001FA02FCC2F1200250EA4C0021FA02F2B2
:102BC00043EB020008BF20EADC7070470000000001
:102BD0004FF0FF0C1CEAD0521EBF1CEAD15392EA00
:102BE0000C0F93EA0C0F6FD01A4480EA010C4002DC
:102BF00018BF5FEA41211ED04FF0006343EA501036
:102C000043EA5111A0FB01310CF00040B1F5000F77
:102C10003EBF490041EAD3715B0040EA010062F126
:102C20007F02FD2A1DD8B3F1004F40EBC25008BF10
:102C300020F00100704790F0000F0CF0004C08BF2E
:102C400049024CEA502040EA51207F3AC2BFD2F1FB
:102C5000FF0340EAC250704740F400004FF0000309
:102C6000013A5DDC12F1190FDCBF00F00040704743
:102C7000C2F10002410021FA02F1C2F1200200FA81
:102C800002FC5FEA310040F1000053EA4C0308BF48
:102C900020EADC70704792F0000F00F0004C02BF99
:102CA000400010F4000F013AF9D040EA0C0093F014
:102CB000000F01F0004C02BF490011F4000F013B6E
:102CC000F9D041EA0C018FE70CEAD15392EA0C0FDC
:102CD00018BF93EA0C0F0AD030F0004C18BF31F047
:102CE000004CD8D180EA010000F00040704790F01D
:102CF000000F17BF90F0004F084691F0000F91F0C1
:102D0000004F14D092EA0C0F01D142020FD193EA86
:102D10000C0F03D14B0218BF084608D180EA01000E
:102D200000F0004040F0FE4040F40000704740F0EA
:102D3000FE4040F4400070474FF0FF0C1CEAD052B8
:102D40001EBF1CEAD15392EA0C0F93EA0C0F69D014
:102D5000A2EB030280EA010C49024FEA402037D07F
:102D60004FF0805343EA111143EA10130CF0004076
:102D70008B4238BF5B0042F17D024FF4000C8B4266
:102D800024BF5B1A40EA0C00B3EB510F24BFA3EB46
:102D9000510340EA5C00B3EB910F24BFA3EB910316
:102DA00040EA9C00B3EBD10F24BFA3EBD10340EA70
:102DB000DC001B0118BF5FEA1C1CE0D1FD2A3FF6B6
:102DC00050AF8B4240EBC25008BF20F0010070476B
:102DD0000CF0004C4CEA50207F32C2BFD2F1FF030E
:102DE00040EAC250704740F400004FF00003013A3F
:102DF00037E792F0000F00F0004C02BF400010F4E3
:102E0000000F013AF9D040EA0C0093F0000F01F0F6
:102E1000004C02BF490011F4000F013BF9D041EA18
:102E20000C0195E70CEAD15392EA0C0F08D142024B
:102E30007FF47DAF93EA0C0F7FF470AF084676E71E
:102E400093EA0C0F04D14B023FF44CAF08466EE7F7
:102E500030F0004C18BF31F0004CCAD130F00042C5
:102E60007FF45CAF31F000437FF43CAF5FE700BF1D
:102E70004FF0FF3C06E000BF4FF0010C02E000BF46
:102E80004FF0010C4DF804CD4FEA40024FEA4103E8
:102E90007FEA226C18BF7FEA236C11D001B052EA9E
:102EA000530C18BF90EA010F58BFB2EB030088BF64
:102EB000C81738BF6FEAE17018BF40F001007047D3
:102EC0007FEA226C02D15FEA402C05D17FEA236CB5
:102ED000E4D15FEA412CE1D05DF8040B704700BFFC
:102EE000844608466146FFE70FB5FFF7C9FF002893
:102EF00048BF10F1000F0FBD4DF808EDFFF7F4FFCC
:102F00000CBF012000205DF808FB00BF4DF808ED64
:102F1000FFF7EAFF34BF012000205DF808FB00BF87
:102F20004DF808EDFFF7E0FF94BF012000205DF8A9
:102F300008FB00BF4DF808EDFFF7D2FF94BF01205A
:102F400000205DF808FB00BF4DF808EDFFF7C8FF53
:102F500034BF012000205DF808FB00BF0000000026
:102F60004FEA4002B2F1FE4F0FD34FF09E03B3EB96
:102F700012620DD94FEA002343F0004310F0004FD6
:102F800023FA02F018BF404270474FF0000070472C
:102F900012F1610F01D1420205D110F0004008BFCB
:102FA0006FF0004070474FF00000704700000000D5
:102FB00090F800F06DE9024520F007016FF0000C79
:102FC00010F0070491F820F040F049804FF0000421
:102FD0006FF00700D1E9002391F840F000F10800FC
:102FE00082FA4CF2A4FA8CF283FA4CF3A2FA8CF334
:102FF0004BBBD1E9022382FA4CF200F10800A4FA9B
:103000008CF283FA4CF3A2FA8CF3E3B9D1E90423EE
:1030100082FA4CF200F10800A4FA8CF283FA4CF325
:10302000A2FA8CF37BB9D1E9062301F1200182FADF
:103030004CF200F10800A4FA8CF283FA4CF3A2FAE5
:103040008CF3002BC6D0002A04BF04301A4612BAF3
:10305000B2FA82F2FDE8024500EBD2007047D1E9F6
:10306000002304F00305C4F100004FEAC50514F085
:10307000040F91F840F00CFA05F562EA05021CBF56
:1030800063EA050362464FF00004A9E70000000070
:1030900070B440EA0104A30727D1032A25D90B46BF
:1030A0000646194653F8045BA5F1013424EA0504E9
:1030B00014F0803F06D1043A032A46F8045B19460F
:1030C000EFD882B133460C7803F8014B551E74B12A
:1030D00032442E4405E011F8014FF51A03F8014B74
:1030E0002CB19A42F7D170BC70470646E9E7002D33
:1030F000F9D01D44002203F8012BAB42FBD170BC78
:10310000704700BF00000000000000000000000049
:1031100070783D25642070793D256420707A3D25C6
:103120006409783D256420793D25640A000000008B
:103130004D41494E0000000000000000000000006A
:10314000000820D020000000000840D0200000002F
:10315000008800D020000000000800D120000000FE
:10316000000808D0200000001C0000000B00000038
:103170001F000000250000001E00000000000000ED
:10318000446973706C617900000000000000000069
:103190000800000010000000030000001A000000FA
:1031A00020000000040000000000000000000000FB
:1031B0002A6576656E7400006932632E6300000034
:1031C00046696C652025732C206C696E652025642A
:1031D0003A20617373657274696F6E20257320667F
:1031E00061696C6564000000493243007374617466
:1031F0007573203D3D204F4B000000000000000093
:10320000303132333435363738396162636465665C
:1032100000000000000000000000000000000000AE
:10322000343400003C3400004434000048340000D2
:1032300054340000603400006C3400007834000026
:1032400084340000903400009C340000A834000056
:10325000B434000000000000000000000000000086
:103260000D0A50616E69633A2000000020696E20EB
:1032700070726F6365737320257300000D0A000080
:1032800043616E277420636F6E6E65637420746F84
:103290002043505520657863657074696F6E7300C4
:1032A000426164207072696F726974792025640AC2
:1032B00000000000556E6578706563746564206970
:1032C0006E7465727275707420256400556E657831
:1032D000706563746564206661756C742025730085
:1032E000546F6F206D616E792070726F63657373B8
:1032F000657300004E6F20737061636520666F72A6
:103300002070726F63657373000000004D69637213
:103310006F6269616E206973206F7574206F66201B
:103320006D656D6F7279000049444C4500000000E6
:10333000737461727428292063616C6C6564206108
:1033400066746572207363686564756C657220735A
:103350007461727475700000537461636B206F76D2
:103360006572666C6F77000053656E64696E6720E6
:10337000746F2061206E6F6E2D6578697374656E51
:10338000742070726F636573732025640000000001
:1033900042616420737461746520696E2072656394
:1033A000656976652829000073656E64726563201F
:1033B0006D6179206E6F742062652075736564207D
:1033C000746F2073656E64205245504C59206D65B2
:1033D00073736167650000000D0A50524F434553F7
:1033E000532044554D500D0A0000000025752F252F
:1033F00075000000257325643A2025732025782068
:1034000073746B3D25732025730D0A00556E6B6E2A
:103410006F776E2073797363616C6C202564000094
:10342000426164206D6573736167652074797065AE
:10343000202564002A7A65726F2A00005265736540
:10344000740000004E4D4900486172644661756C1D
:10345000740000004D656D4D616E61676500000090
:103460004275734661756C740000000055736167A6
:10347000654661756C7400005B444541445D2020E5
:10348000200000005B4143544956455D2000000088
:103490005B53454E445D2020200000005B524543B5
:1034A000454956455D0000005B53454E4452454337
:1034B0005D0000005B49444C455D20202000000079
:1034C00054776F20636C69656E74732063616E6EF0
:1034D0006F74207761697420666F7220696E7075F1
:1034E00074206174206F6E6365000000536572691B
:1034F000616C0000000000000000000000000000FF
:1035000000C00140001002400020024000D00240F4
:10351000008000400090004000A0004000A001405A
:1035200000B0014000300040004000400005005065
:103530000008005000000000000000000000000033
:10354000546F6F206D616E792074696D65727300C0
:0835500054696D657200000072
:1035580000C0004000C1004008C5004000C0004055
:10356800765EDF0100E80120A8040020FFFFFFFFCE
:04357800010000004E
:0400000300001DD705
:00000001FF
